:020000040800F2
:1000000008040020A9010008FF010008F70100080A
:10001000FB010008F10100083106000800000000A3
:100020000000000000000000000000009D02000829
:10003000F5010008000000007902000889030008AB
:10004000C3010008C3010008C3010008C301000880
:10005000C3010008C3010008C3010008C301000870
:10006000C3010008C3010008C3010008C301000860
:10007000C3010008C3010008C3010008C301000850
:10008000C3010008C3010008C3010008000000000C
:10009000000000000000000000000000C301000894
:1000A000C3010008F5030008C3010008C3010008EC
:1000B000C3010008C3010008C3010008C301000810
:1000C000C3010008C3010008C3010008C301000800
:1000D000C3010008C3010008C301000800000000BC
:1000E000C3010008C3010008C301000800000000AC
:1000F000000000000000000000000000C301000834
:1001000000000000C3010008C3010008C30100088B
:1001100000000000000000000000000000000000DF
:10012000C3010008C3010008C3010008C30100089F
:10013000C3010008000000000000000000000000F3
:10014000000000000000000000000000C3010008E3
:10015000C3010008C3010008C3010008C30100086F
:10016000C3010008C30100080000000000000000F7
:10017000000000000000000000000000000000007F
:1001800000000000C30100080000000000000000A3
:10019000C3010008DFF80CD000F018F80048004751
:1001A00095060008080400200648804706480047D6
:1001B000FEE7FEE7FEE7FEE7FEE7FEE7FEE7FEE717
:1001C000FEE7FEE78D03000895010008064C074D89
:1001D00006E0E06840F0010394E807009847103417
:1001E000AC42F6D3FFF7DAFFFC0600081C07000854
:1001F00000BFFEE7704700BFFEE700BFFEE77047A5
:1002000070B5002100230F22C4781CB3174C24685A
:1002100004F4E064C4F5E064C4F30721C1F104040C
:10022000E3B20A4144789C40E1B28478144021430F
:100230000C07210E0E4C05786155047804F01F055B
:100240000124AC4005786D11AD0005F1E025C5F83D
:10025000004109E0047804F01F050124AC40054D7D
:100260000678761145F8264070BD00000CED00E0E0
:1002700000E400E080E100E07047000029B1064A98
:1002800012680243044B1A6004E0034A1268824376
:10029000014B1A607047000044380240704700006C
:1002A0000CB50020019000903348006840F4803085
:1002B0003149086000BF3048006800F40030009009
:1002C0000198401C0190009818B90198B0F5A04F12
:1002D000F1D12948006800F4003010B101200090ED
:1002E00001E0002000900098012844D122484030CD
:1002F000006840F080502049403108601F48006885
:1003000040F440401D4908601B48083000681A4905
:10031000083108600846006808600846006840F434
:10032000805008601648091F0860081F006840F0E8
:100330008070091F086000BF0F48006800F000705F
:100340000028F9D040F202700E4908600A480830CF
:10035000006820F00300084908310860084600687A
:1003600040F00200086000BF03480830006800F059
:100370000C000828F8D10CBD003802400070004085
:1003800008544107003C02407047000010B5154872
:10039000006840F47000134908601348006840F09A
:1003A00001001149086000200F49083108600E481B
:1003B00000680E4908400C4908600D48091D086096
:1003C000081F006820F48020091F086000200649EB
:1003D0000C310860FFF764FF4FF00060014980397D
:1003E000086010BD88ED00E000380240FFFFF6FE17
:1003F0001030002410B50121094800F032F801281E
:100400000DD10121064800F01DF806A000F012F9F8
:100410000021034800F019F801200949086010BDC7
:100420000044014054494D3130205550444154411D
:10043000204556454E5420504153530D0A000000AC
:1004400000000020CA430282704721B1028842F0B6
:100450000102028004E002884FF6FE731A40028017
:10046000704730B50246002000230024158A05EAB3
:100470000103958905EA010413B10CB1012000E0E4
:10048000002030BD1FB501214804FFF7F7FE4FF4EF
:100490007A70029042F2D000ADF804000020ADF86E
:1004A0000600ADF80C0001A90F4800F029F8012161
:1004B0000D48FFF7C7FF012211460B4800F016F860
:1004C00001210948FFF7C1FF19208DF80000012024
:1004D0008DF8010002208DF8020001208DF8030044
:1004E0006846FFF78DFE1FBD004401401AB18389A5
:1004F0000B43838102E083898B4383817047000033
:1005000000220288184B98420ED0184B98420BD00C
:10051000B0F1804F08D0164B984205D0154B984249
:1005200002D0154B984204D14FF68F731A404B8876
:100530001A43124B984207D0114B984204D04FF601
:10054000FF431A400B891A4302804B68C3620B8831
:100550000385054B984202D0044B984201D18B7A17
:10056000038601238382704700000140000401409C
:100570000004004000080040000C00400010004053
:1005800000140040042000F003F800BFFEE7000064
:1005900000BF0549097801F080010029F9D0C0F3B6
:1005A0000801014A51607047001001401D48006871
:1005B00040F001001B4908601A481430006840F000
:1005C00010001849143108601748406A40F0700064
:1005D000154948620846006840F400200860084653
:1005E000406820F4002048600846806840F40020FD
:1005F00088600846C06840F48020C8600B48806866
:1006000040F2D9210843094988600846C06842F28F
:100610000C0108430549C8600846C06940F0010064
:10062000C8617047303802400000024000100140AD
:1006300000BFFEE7014A024900F013B88506000832
:100640000400002002E008C8121F08C1002AFAD1E5
:1006500070477047002001E001C1121F002AFBD142
:1006600070472DE9F04116460F460446002503E089
:100670003946B047641C6D1C20780028F8D1284604
:10068000BDE8F08110B503460C46D8B2FFF780FFF5
:1006900010BD0000FFF78AFF0AA0FFF7CBFFFFF7AE
:1006A000F1FE0C48008840F001000A49088007E08C
:1006B0000948006820B109A0FFF7BCFFFFF762FFFF
:1006C000F6E70000544558542053544152540D0A43
:1006D00000000000144401400000002045786974C7
:1006E00020696E7465727275707420616E64207416
:1006F00065737420656E64730D0A00001C070008A2
:10070000000000200800000044060008240700083C
:10071000080000200004000054060008000000004B
:0407200000000000D5
:040000050800019559
:00000001FF
