:020000040800F2
:1000000008040020A9010008F3030008EB0300081E
:10001000EF0300081D02000841070008000000006F
:10002000000000000000000000000000390400088B
:10003000E903000800000000F5030008250500089A
:10004000C3010008C3010008C3010008C301000880
:10005000C3010008C3010008C3010008C301000870
:10006000C3010008C3010008C3010008C301000860
:10007000C3010008C3010008C3010008C301000850
:10008000C3010008C3010008C3010008000000000C
:10009000000000000000000000000000C301000894
:1000A000C3010008C3010008C3010008C301000820
:1000B000C3010008C3010008C3010008C301000810
:1000C000C3010008C3010008C3010008C301000800
:1000D000C3010008C3010008C301000800000000BC
:1000E000C3010008C3010008C301000800000000AC
:1000F000000000000000000000000000C301000834
:1001000000000000C3010008C3010008C30100088B
:1001100000000000000000000000000000000000DF
:10012000C3010008C3010008C3010008C30100089F
:10013000C3010008000000000000000000000000F3
:10014000000000000000000000000000C3010008E3
:10015000C3010008C3010008C3010008C30100086F
:10016000C3010008C30100080000000000000000F7
:10017000000000000000000000000000000000007F
:1001800000000000C30100080000000000000000A3
:10019000C3010008DFF80CD000F02EF8004800473B
:1001A000590900080804002006488047064800470F
:1001B000FEE7FEE7FEE7FEE7FEE7FEE7FEE7FEE717
:1001C000FEE7FEE7290500089501000830B50B465B
:1001D000014600202022012409E021FA02F59D4277
:1001E00005D303FA02F5491B04FA02F52844151E4B
:1001F000A2F10102F1DC30BD064C074D06E0E068DB
:1002000040F0010394E8070098471034AC42F6D35D
:10021000FFF7C4FF580A0008780A000800BFFEE78D
:1002200021B1026842F00102026003E0026822F09C
:100230000102026070470000016821F001010160C5
:100240000021016041608160C16001612121416143
:100250004A49884204D13D21484A103A91608CE0D5
:1002600046491831884205D14FF47461434A103A27
:10027000916082E041493031884205D14FF47411D8
:100280003E4A103A916078E03C494831884205D1B5
:100290004FF07461394A103A91606EE0374960312D
:1002A000884204D13649354A103AD16065E0334975
:1002B0007831884204D13349304A103AD1605CE049
:1002C0002E499031884204D12F492C4A103AD160EE
:1002D00053E02A49A831884205D14FF03D51274AC1
:1002E000103AD16049E02949884204D13D21274A8A
:1002F000083A116041E025491831884205D14FF490
:100300007461224A083A116037E02049303188424E
:1003100005D14FF474111D4A083A11602DE01B49B4
:100320004831884205D14FF07461184A083A11608B
:1003300023E016496031884204D11149134A121F43
:1003400011601AE011497831884204D10D490F4AF1
:10035000121F116011E00D499031884204D10A4901
:100360000A4A121F116008E00849A831884204D1E6
:100370004FF03D51054A121F116070471060024056
:100380003D000020400F002000003D20106402408E
:1003900010B500220268134B1A40CC680B68234347
:1003A0004C6923438C692343CC6923430C6A234360
:1003B0004C6A23438C6A23434C6B23438C6B23434B
:1003C0001A430260426922F00702D1E90B34234349
:1003D0001A4342610B6943604B6883608B68C3605A
:1003E00010BD00003F801CF0704700BFFEE700BF5B
:1003F000FEE770477047000029B1064A12680243C1
:10040000044B1A6004E0034A12688243014B1A60ED
:10041000704700003038024029B1064A1268024392
:10042000044B1A6004E0034A12688243014B1A60CD
:100430007047000044380240704700000CB50020AF
:10044000019000903348006840F4803031490860E2
:1004500000BF3048006800F4003000900198401C54
:100460000190009818B90198B0F5A04FF1D1294832
:10047000006800F4003010B10120009001E000207D
:1004800000900098012844D122484030006840F094
:1004900080502049403108601F48006840F44040C7
:1004A0001D4908601B48083000681A490831086077
:1004B0000846006808600846006840F480500860FC
:1004C0001648091F0860081F006840F08070091F67
:1004D000086000BF0F48006800F000700028F9D0E5
:1004E00040F202700E4908600A480830006820F0A7
:1004F00003000849083108600846006840F002001F
:10050000086000BF03480830006800F00C000828AD
:10051000F8D10CBD0038024000700040085441077B
:10052000003C02407047000010B51248006840F0DF
:1005300001001049086000200E49083108600D488C
:1005400000680D4908400B4908600C48091D086007
:10055000081F006820F48020091F0860002005495A
:100560000C310860FFF76AFF4FF000600449086033
:1005700010BD000000380240FFFFF6FE10300024DE
:1005800008ED00E00EB501210846FFF745FF4FF6E4
:10059000FF70ADF800000020ADF802004FF6FF70CC
:1005A00001900020ADF808008DF80A0069460B485C
:1005B00000F02EF80121094800F012F80122D102C2
:1005C000064800F019F801229102044800F014F8DE
:1005D00001225102014800F00FF80EBD0000014059
:1005E00021B1028842F00102028004E002884FF645
:1005F000FE731A40028070471AB183890B438381CE
:1006000002E083898B4383817047818270470000B9
:1006100000220288184B98420ED0184B98420BD0FB
:10062000B0F1804F08D0164B984205D0154B984238
:1006300002D0154B984204D14FF68F731A404B8865
:100640001A43124B984207D0114B984204D04FF6F0
:10065000FF431A400B891A4302804B68C3620B8820
:100660000385054B984202D0044B984201D18B7A06
:10067000038601238382704700000140000401408B
:100680000004004000080040000C00400010004042
:1006900000140040042000F003F800BFFEE7000053
:1006A00000BF0549097801F080010029F9D0C0F3A5
:1006B0000801014A51607047001001401D48006860
:1006C00040F001001B4908601A481430006840F0EF
:1006D00010001849143108601748406A40F0700053
:1006E000154948620846006840F400200860084642
:1006F000406820F4002048600846806840F40020EC
:1007000088600846C06840F48020C8600B48806854
:1007100040F2D9210843094988600846C06842F27E
:100720000C0108430549C8600846C06940F0010053
:10073000C86170473038024000000240001001409C
:1007400000BFFEE70FB4054B10B503A9044A029899
:1007500000F018F810BC5DF814FB0000490900080F
:100760000400002002E008C8121F08C1002AFAD1C4
:1007700070477047002001E001C1121F002AFBD121
:10078000704700002DE9FF4F89B09B4604460025C5
:1007900006E025280BD05A460B999047641C6D1C27
:1007A00020780028F5D10DB02846BDE8F08F00274D
:1007B000B8460122474900E0074314F8013F203BB7
:1007C00002FA03F00842F7D120782E2819D114F844
:1007D000010F47F004072A280ED06FF02F0220786F
:1007E000A0F1300109290CD808EB880102EB410186
:1007F00000EB0108641CF2E70A98641C50F8048BB3
:100800000A9020780028CED0642808D0692806D025
:1008100075281ED05A460B9990476D1C58E00A99CE
:100820004FF00A0901C90A91002802DA40422D213D
:1008300002E0390504D52B218DF82010012103E0B9
:10084000F90704D02021F7E78A4608AE0DE0002121
:10085000FAE70A994FF00A0901C90A91F7E74946F0
:10086000FFF7B4FC303106F8011D0028F7D1ADEBDD
:10087000060000F12009780701D44FF00108C845AF
:1008800002DDA8EB090000E000208046002706E01A
:1008900008A85A46C05D0B9990476D1C7F1C5745B0
:1008A000F6DB04E030205A460B9990476D1CB8F1F6
:1008B0000001A8F10108F5DC05E016F8010B5A4625
:1008C0000B9990476D1CB9F10001A9F10109F4DC05
:1008D000641C65E70928010000B58FB00121880577
:1008E000FFF78AFD1448FFF7A7FC0020009013488B
:1008F00001901348029000200390032004900020F0
:1009000005904FF4806006900020079008900990B1
:100910004FF400300A9000200B9001200C90002032
:100920000D900E9069460748FFF732FD01210548FA
:10093000FFF776FC0FB000BDA06002402C00014024
:1009400000000020A064024010B503460C46D8B257
:10095000FFF7A6FE10BD000010B5FFF7AFFE15A013
:10096000FFF7F0FEFFF7B8FFFFF70CFE00F050F8BE
:1009700002211248FFF749FE11A0FFF7E3FE00F045
:1009800047F804210D48FFF740FE13A0FFF7DAFEF9
:1009900000F03EF808210948FFF737FE14A0FFF7E2
:1009A000D1FE00F035F818A0FFF7CCFEFFF772FE7D
:1009B000002010BD53544152540D0A000000014064
:1009C000434331206576656E7420686173206861E9
:1009D0007070656E0D0A0000434332206576656EC7
:1009E00074206861732068617070656E0D0A000084
:1009F000434333206576656E7420686173206861B7
:100A00007070656E0D0A0000656E640D0A000000CE
:100A100010B5044883784278017803A0FFF792FE6E
:100A200010BD0000000000204275666665725B30F4
:100A30005D203D2025642C4275666665725B315DE4
:100A4000203D2025642C4275666665725B325D2010
:100A50003D2025640D0A0000780A000800000020EF
:100A60000800000064070008800A00080800002051
:100A700000040000740700080000000000000000EF
:040000050800019559
:00000001FF
