:020000040800F2
:1000000010100020A9010008FF010008F7010008F6
:10001000FB010008F10100088D0700080000000046
:10002000000000000000000000000000BD02000809
:10003000F50100080000000079020008A90300088B
:10004000C3010008C3010008C3010008C301000880
:10005000C3010008C3010008C3010008C301000870
:10006000C3010008C3010008C3010008C301000860
:10007000C3010008C3010008C3010008C301000850
:10008000C3010008C3010008C3010008000000000C
:10009000000000000000000000000000C301000894
:1000A000C301000815040008C3010008C3010008CB
:1000B0004504000871040008C3010008C3010008DA
:1000C000C3010008C3010008C3010008C301000800
:1000D000C3010008C3010008C301000800000000BC
:1000E000C3010008C3010008C301000800000000AC
:1000F000000000000000000000000000C301000834
:1001000000000000C3010008C3010008C30100088B
:1001100000000000000000000000000000000000DF
:10012000C3010008C3010008C3010008C30100089F
:10013000C3010008000000000000000000000000F3
:10014000000000000000000000000000C3010008E3
:10015000C3010008C3010008C3010008C30100086F
:10016000C3010008C30100080000000000000000F7
:10017000000000000000000000000000000000007F
:1001800000000000C30100080000000000000000A3
:10019000C3010008DFF80CD000F018F80048004751
:1001A000F107000810100020064880470648004765
:1001B000FEE7FEE7FEE7FEE7FEE7FEE7FEE7FEE717
:1001C000FEE7FEE7AD03000895010008064C074D69
:1001D00006E0E06840F0010394E807009847103417
:1001E000AC42F6D3FFF7DAFF8C080008AC08000831
:1001F00000BFFEE7704700BFFEE700BFFEE77047A5
:1002000070B5002100230F22C4781CB3174C24685A
:1002100004F4E064C4F5E064C4F30721C1F104040C
:10022000E3B20A4144789C40E1B28478144021430F
:100230000C07210E0E4C05786155047804F01F055B
:100240000124AC4005786D11AD0005F1E025C5F83D
:10025000004109E0047804F01F050124AC40054D7D
:100260000678761145F8264070BD00000CED00E0E0
:1002700000E400E080E100E07047000029B1064A98
:1002800012680243044B1A6004E0034A1268824376
:10029000014B1A60704700004038024029B1064AFD
:1002A00012680243044B1A6004E0034A1268824356
:1002B000014B1A607047000044380240704700004C
:1002C0000CB50020019000903348006840F4803065
:1002D0003149086000BF3048006800F400300090E9
:1002E0000198401C0190009818B90198B0F5A04FF2
:1002F000F1D12948006800F4003010B101200090CD
:1003000001E0002000900098012844D122484030AC
:10031000006840F080502049403108601F48006864
:1003200040F440401D4908601B48083000681A49E5
:10033000083108600846006808600846006840F414
:10034000805008601648091F0860081F006840F0C8
:100350008070091F086000BF0F48006800F000703F
:100360000028F9D040F202700E4908600A480830AF
:10037000006820F00300084908310860084600685A
:1003800040F00200086000BF03480830006800F039
:100390000C000828F8D10CBD003802400070004065
:1003A00008544107003C02407047000010B5154852
:1003B000006840F47000134908601348006840F07A
:1003C00001001149086000200F49083108600E48FB
:1003D00000680E4908400C4908600D48091D086076
:1003E000081F006820F48020091F086000200649CB
:1003F0000C310860FFF764FF4FF00060014980395D
:10040000086010BD88ED00E000380240FFFFF6FEF6
:100410001030002410B50121084800F05CF80128D4
:100420000AD10121054800F047F80220044908607C
:100430000021024800F043F810BD00000000014018
:100440000400002010B50121880700F044F80128BD
:100450000AD10121800700F02FF80120034908602C
:100460000021800700F02BF810BD000004000020E0
:1004700010B50121084800F02EF801280AD1012109
:10048000054800F019F801200449086000210248DD
:1004900000F015F810BD000000040040000000202E
:1004A00021B1028842F08002028004E002884FF607
:1004B0007F731A4002807047CA430282704721B19D
:1004C000028842F00102028004E002884FF6FE73C7
:1004D0001A400280704730B50246002000230024F5
:1004E000158A05EA0103958905EA010413B10CB1E7
:1004F000012000E0002030BD1AB183890B438381C5
:1005000002E083898B4383817047000000220288C8
:10051000184B98420ED0184B98420BD0B0F1804F38
:1005200008D0164B984205D0154B984202D0154B77
:10053000984204D14FF68F731A404B881A43124BDE
:10054000984207D0114B984204D04FF6FF431A400F
:100550000B891A4302804B68C3620B880385054BE5
:10056000984202D0044B984201D18B7A0386012332
:1005700083827047000001400004014000040040F5
:1005800000080040000C0040001000400014004033
:100590001FB501210846FFF781FE01210846FFF73C
:1005A0006DFE0020ADF80400312002900020ADF86F
:1005B0000C00ADF806008DF80E0001A92248FFF7E7
:1005C000A5FF214880884FF68F7108401E4988801A
:1005D0000846808840F010008880012211461A48A1
:1005E000FFF78AFF01211848FFF766FF19208DF8F1
:1005F000000001208DF801008DF802008DF8030045
:100600006846FFF7FDFD0020ADF8040031200290A0
:100610000020ADF80C00ADF806008DF80E0001A921
:100620004FF08040FFF772FF012211469007FFF75D
:1006300063FF01218807FFF73FFF1C208DF80000B2
:100640006846FFF7DDFD1FBD000001401FB5012119
:100650000220FFF713FE0020ADF8040031200290C5
:100660000020ADF80C00ADF8060001A91B48FFF70B
:100670004DFF1A48083000884FF68F71084017491F
:1006800008310880084600880880084600884FF630
:10069000F87108401149083108800846008840F088
:1006A0000500088001210D48FFF7FAFE01221146DE
:1006B0000A48FFF721FF01210848FFF7FDFE1D2032
:1006C0008DF8000002208DF8010001208DF8020055
:1006D0008DF803006846FFF793FD1FBD000400403E
:1006E000042000F003F800BFFEE7000000BF05494A
:1006F000097801F080010029F9D0C0F30801014A0E
:1007000051607047001001401D48006840F0010032
:100710001B4908601A481430006840F0100018495E
:10072000143108601748406A40F07000154948626B
:100730000846006840F4002008600846406820F43D
:10074000002048600846806840F400208860084621
:10075000C06840F48020C8600B48806840F2D9210E
:100760000843094988600846C06842F20C01084302
:100770000549C8600846C06940F00100C86170477B
:1007800030380240000002400010014000BFFEE788
:10079000014A024900F013B8E10700080C000020EC
:1007A00002E008C8121F08C1002AFAD1704770473A
:1007B000002001E001C1121F002AFBD170472DE982
:1007C000F04116460F460446002503E03946B0477F
:1007D000641C6D1C20780028F8D12846BDE8F08103
:1007E00010B503460C46D8B2FFF780FF10BD0000DD
:1007F000FFF78AFF14A0FFF7CBFFFFF7C9FEFFF753
:1008000025FF01211448FFF75AFE01218807FFF751
:1008100056FE18E01148006801280CD11048006805
:1008200048B900200D4908600EA0FFF7B1FF012173
:100830001348FFF744FE0A48006820B111A0FFF7F3
:10084000A7FFFFF74DFFE5E75445585420535441A7
:1008500052540D0A00000000000400400400002073
:100860000000002054494D3220555044415441204D
:100870004255542054494D312F33204E4F0D0A001C
:1008800000000140454E440D0A000000AC0800087D
:100890000000002010000000A0070008BC080008AD
:1008A0001000002000100000B00700080000000049
:0C08B0000000000000000000000000003C
:040000050800019559
:00000001FF
