:020000040800F2
:1000000008040020A9010008D5020008CD0200085C
:10001000D1020008F10100080D08000800000000EE
:100020000000000000000000000000009503000830
:10003000F5010008000000005103000881040008D9
:10004000C3010008C3010008C3010008C301000880
:10005000C3010008C3010008C3010008C301000870
:10006000C3010008C3010008C3010008C301000860
:10007000C3010008C3010008C3010008C301000850
:10008000C3010008C3010008C3010008000000000C
:10009000000000000000000000000000C301000894
:1000A000C3010008C3010008C3010008E1040008FF
:1000B000C3010008C3010008C3010008C301000810
:1000C000C3010008C3010008C3010008C301000800
:1000D000C3010008C3010008C301000800000000BC
:1000E000C3010008C3010008C301000800000000AC
:1000F000000000000000000000000000C301000834
:1001000000000000C3010008C3010008C30100088B
:1001100000000000000000000000000000000000DF
:10012000C3010008C3010008C3010008C30100089F
:10013000C3010008000000000000000000000000F3
:10014000000000000000000000000000C3010008E3
:10015000C3010008C3010008C3010008C30100086F
:10016000C3010008C30100080000000000000000F7
:10017000000000000000000000000000000000007F
:1001800000000000C30100080000000000000000A3
:10019000C3010008DFF80CD000F018F80048004751
:1001A00071080008080400200648804706480047F8
:1001B000FEE7FEE7FEE7FEE7FEE7FEE7FEE7FEE717
:1001C000FEE7FEE78504000895010008064C074D90
:1001D00006E0E06840F0010394E807009847103417
:1001E000AC42F6D3FFF7DAFF98080008B808000819
:1001F00000BFFEE77047F0B50A4600210023002447
:1002000000BF3DE0012505FA01F3156805EA030486
:100210009C4234D105684F000326BE40B5430560BB
:1002200015794E00B5400668354305601579012DF6
:1002300002D01579022D16D185684F000326BE40E5
:10024000B543856055794E00B54086683543856075
:10025000456801268E40B5434560456896798E40D5
:10026000B6B235434560C5684F000326BE40B5436E
:10027000C560D5794E00B540C6683543C560491C98
:100280001029BFD3F0BDF0B5002300244D07ED0EBB
:1002900002FA05F3CE1000F1200555F826504E075E
:1002A000F70E0F26BE40B543CF1000F1200646F8EA
:1002B0002750CE1000F1200555F8265045EA0304DA
:1002C000CE1000F1200545F82640F0BD00BFFEE746
:1002D00000BFFEE77047000070B5002100230F2229
:1002E000C4781CB3174C246804F4E064C4F5E064DB
:1002F000C4F30721C1F10404E3B20A4144789C40ED
:10030000E1B28478144021430C07210E0E4C05788D
:100310006155047804F01F050124AC4005786D1187
:10032000AD0005F1E025C5F8004109E0047804F0CE
:100330001F050124AC40054D0678761145F826408E
:1003400070BD00000CED00E000E400E080E100E0A2
:100350007047000029B1064A12680243044B1A6034
:1003600004E0034A12688243014B1A6070470000A0
:100370003038024029B1064A12680243044B1A6021
:1003800004E0034A12688243014B1A607047000080
:1003900044380240704700000CB5002001900090E6
:1003A0003348006840F480303149086000BF30486D
:1003B000006800F4003000900198401C0190009803
:1003C00018B90198B0F5A04FF1D12948006800F4A0
:1003D000003010B10120009001E000200090009852
:1003E000012844D122484030006840F08050204924
:1003F000403108601F48006840F440401D490860D3
:100400001B48083000681A4908310860084600682F
:1004100008600846006840F4805008601648091FCC
:100420000860081F006840F08070091F086000BF66
:100430000F48006800F000700028F9D040F2027008
:100440000E4908600A480830006820F00300084997
:10045000083108600846006840F00200086000BFEC
:1004600003480830006800F00C000828F8D10CBDE3
:10047000003802400070004008544107003C024030
:100480007047000010B51248006840F001001049A4
:10049000086000200E49083108600D4800680D49C9
:1004A00008400B4908600C48091D0860081F0068D7
:1004B00020F48020091F0860002005490C310860E5
:1004C000FFF76AFF4FF000600449086010BD0000AC
:1004D00000380240FFFFF6FE1030002408ED00E077
:1004E00010B504A000F094F90221034800F012F8BE
:1004F00010BD0000310D0A000000014021B102884A
:1005000042F08002028004E002884FF67F731A40B6
:1005100002807047CA430282704721B1028842F0CC
:100520000102028004E002884FF6FE731A40028046
:10053000704731B1B0F8442042F40042A0F84420A2
:1005400005E0B0F84420C2F30E02A0F84420704742
:100550001AB183890B43838102E083898B438381B2
:100560007047000000B58BB001210846FFF702FF7D
:1005700001210846FFF7EEFE4FF480700190022043
:100580008DF8080003208DF8090001208DF80A007D
:100590008DF80B0001A92B48FFF72DFE0122082141
:1005A0002848FFF770FE632009900020ADF8200076
:1005B0002020ADF822000020ADF828008DF82A0098
:1005C00008A9214800F090F86020ADF80C00012047
:1005D000ADF80E000020ADF818003120059003A9F9
:1005E000194800F033F80821174800F06DF8012190
:1005F0001548FFF783FF02211348FFF78BFF012205
:1006000002211148FFF7A4FF00210F4800F069F80C
:1006100001210D48FFF781FF01210B48FFF789FFFA
:100620001B208DF8000001208DF8010002208DF8BC
:10063000020001208DF803006846FFF74DFE0BB065
:1006400000BD0000000002400000014070B5002421
:1006500000220023058C4FF6FE7635400584028C7F
:100660008388048B4FF68F752C40B51E2C400D8867
:100670002C43751E2A408D892A434D882A43104DEC
:10068000A84202D00F4DA84213D14FF6F7752A4069
:10069000CD892A434FF6FB752A408D882A434FF6B1
:1006A000FF652B404FF6FF552B400D8A2B434D8A9B
:1006B0002B43838004838D684563028470BD0000F2
:1006C00000000140000401400A460021018B4FF266
:1006D000FF7319404FF6FF7303EA022319430183A6
:1006E000704741627047000000220288184B984210
:1006F0000ED0184B98420BD0B0F1804F08D0164B5B
:10070000984205D0154B984202D0154B984204D11F
:100710004FF68F731A404B881A43124B984207D0FA
:10072000114B984204D04FF6FF431A400B891A43ED
:1007300002804B68C3620B880385054B984202D048
:10074000044B984201D18B7A038601238382704740
:100750000000014000040140000400400008004087
:10076000000C0040001000400014004000BF05498C
:10077000097801F080010029F9D0C0F30801014A8D
:1007800051607047001001401D48006840F00100B2
:100790001B4908601A481430006840F010001849DE
:1007A000143108601748406A40F0700015494862EB
:1007B0000846006840F4002008600846406820F4BD
:1007C000002048600846806840F4002088600846A1
:1007D000C06840F48020C8600B48806840F2D9218E
:1007E0000843094988600846C06842F20C01084382
:1007F0000549C8600846C06940F00100C8617047FB
:1008000030380240000002400010014000BFFEE707
:10081000014A024900F013B86108000800000020F6
:1008200002E008C8121F08C1002AFAD170477047B9
:10083000002001E001C1121F002AFBD170472DE901
:10084000F04116460F460446002503E03946B047FE
:10085000641C6D1C20780028F8D12846BDE8F08182
:1008600010B503460C46D8B2FFF780FF10BD00005C
:10087000FFF78AFF03A0FFF7CBFFFFF773FE00BF70
:10088000FEE7000063686970313A544558542053BC
:10089000544152540D0A0000B8080008000000201E
:1008A0000400000020080008BC0800080400002024
:0C08B000040400003008000800000000F4
:040000050800019559
:00000001FF
