:020000040800F2
:1000000010200020A9010008DD020008D502000828
:10001000D9020008F1010008C10A00080000000030
:10002000000000000000000000000000BD03000808
:10003000F50100080000000059030008A9040008A9
:10004000C3010008C3010008C3010008C301000880
:10005000C3010008C3010008C3010008C301000870
:10006000C3010008C3010008C3010008C301000860
:10007000C3010008C3010008C3010008C301000850
:10008000C3010008C3010008C3010008000000000C
:10009000000000000000000000000000C301000894
:1000A000C301000839060008C3010008C3010008A5
:1000B00065060008C3010008C3010008C301000869
:1000C000C3010008C3010008C3010008C301000800
:1000D000C3010008C3010008C301000800000000BC
:1000E000C3010008C3010008C301000800000000AC
:1000F000000000000000000000000000C301000834
:1001000000000000C3010008C3010008C30100088B
:1001100000000000000000000000000000000000DF
:10012000C3010008C3010008C3010008C30100089F
:10013000C3010008000000000000000000000000F3
:10014000000000000000000000000000C3010008E3
:10015000C3010008C3010008C3010008C30100086F
:10016000C3010008C30100080000000000000000F7
:10017000000000000000000000000000000000007F
:1001800000000000C30100080000000000000000A3
:10019000C3010008DFF80CD000F018F80048004751
:1001A000250B00081020002006488047064800471D
:1001B000FEE7FEE7FEE7FEE7FEE7FEE7FEE7FEE717
:1001C000FEE7FEE7AD04000895010008064C074D68
:1001D00006E0E06840F0010394E807009847103417
:1001E000AC42F6D3FFF7DAFF9C0B0008BC0B00080B
:1001F00000BFFEE77047F0B50A4600210023002447
:1002000000BF3DE0012505FA01F3156805EA030486
:100210009C4234D105684F000326BE40B5430560BB
:1002200015794E00B5400668354305601579012DF6
:1002300002D01579022D16D185684F000326BE40E5
:10024000B543856055794E00B54086683543856075
:10025000456801268E40B5434560456896798E40D5
:10026000B6B235434560C5684F000326BE40B5436E
:10027000C560D5794E00B540C6683543C560491C98
:100280001029BFD3F0BDF0B5002300244D07ED0EBB
:1002900002FA05F3CE1000F1200555F826504E075E
:1002A000F70E0F26BE40B543CF1000F1200646F8EA
:1002B0002750CE1000F1200555F8265045EA0304DA
:1002C000CE1000F1200545F82640F0BD418370476F
:1002D0000183704700BFFEE700BFFEE770470000E4
:1002E00070B5002100230F22C4781CB3174C24687A
:1002F00004F4E064C4F5E064C4F30721C1F104042C
:10030000E3B20A4144789C40E1B28478144021432E
:100310000C07210E0E4C05786155047804F01F057A
:100320000124AC4005786D11AD0005F1E025C5F85C
:10033000004109E0047804F01F050124AC40054D9C
:100340000678761145F8264070BD00000CED00E0FF
:1003500000E400E080E100E07047000029B1064AB7
:1003600012680243044B1A6004E0034A1268824395
:10037000014B1A60704700003038024029B1064A2C
:1003800012680243044B1A6004E0034A1268824375
:10039000014B1A60704700004038024029B1064AFC
:1003A00012680243044B1A6004E0034A1268824355
:1003B000014B1A607047000044380240704700004B
:1003C0000CB50020019000903348006840F4803064
:1003D0003149086000BF3048006800F400300090E8
:1003E0000198401C0190009818B90198B0F5A04FF1
:1003F000F1D12948006800F4003010B101200090CC
:1004000001E0002000900098012844D122484030AB
:10041000006840F080502049403108601F48006863
:1004200040F440401D4908601B48083000681A49E4
:10043000083108600846006808600846006840F413
:10044000805008601648091F0860081F006840F0C7
:100450008070091F086000BF0F48006800F000703E
:100460000028F9D040F202700E4908600A480830AE
:10047000006820F003000849083108600846006859
:1004800040F00200086000BF03480830006800F038
:100490000C000828F8D10CBD003802400070004064
:1004A00008544107003C02407047000010B5154851
:1004B000006840F47000134908601348006840F079
:1004C00001001149086000200F49083108600E48FA
:1004D00000680E4908400C4908600D48091D086075
:1004E000081F006820F48020091F086000200649CA
:1004F0000C310860FFF764FF4FF00060014980395C
:10050000086010BD88ED00E000380240FFFFF6FEF5
:1005100010300024F0B50C46154600210022068C50
:100520004FF6FE773E400684018B028C4FF60C7628
:1005300031407E1C06EA03162E4331434FF6F57612
:10054000324044F00106324301830284F0BDF0B52D
:100550000C461546002100220026078C4FF6EF7C42
:1005600007EA0C070784018B028C4FF6FF7707EA36
:10057000041640F6FF4739404FF6FF7707EA033786
:1005800039434FF6FF7707EA052739434FF65F7780
:100590003A4046F010073A4301830284F0BDF0B5BB
:1005A0000C461546002100220026078C4FF6FF6CF2
:1005B00007EA0C070784818B028C4FF6FF7707EA66
:1005C00004264FF60C7739404FF6FF7707EA0317FA
:1005D0002F4339434FF2FF573A4046F480773A436E
:1005E00081830284F0BDF0B50C461546002100223F
:1005F0000026078C4EF6FF7C07EA0C070784818BE8
:10060000028C4FF6FF7707EA043640F6FF47394081
:100610004FF6FF7707EA052739434FF6FF7707EADA
:100620000337394345F6FF773A4046F480573A435B
:1006300081830284F0BD000010B50121074800F05D
:100640004AF8012808D10121044800F035F804488F
:100650000068401C0249086010BD00000000014015
:100660000000002010B50121880700F034F80128AF
:1006700011D10121800700F01FF807480068401CD5
:100680000549086000214FF0804000F018F8002173
:10069000024800F014F810BD0400002000000140E2
:1006A00021B1028842F08002028004E002884FF605
:1006B0007F731A4002807047CA430282704721B19B
:1006C000028842F00102028004E002884FF6FE73C5
:1006D0001A400280704730B50246002000230024F3
:1006E000158A05EA0103958905EA010413B10CB1E5
:1006F000012000E0002030BD70B505460C46208882
:1007000050B92389A28861882846FFF703FFE18852
:10071000284600F031F825E0208804280AD12389F2
:10072000A28861882846FFF712FFE188284600F07A
:100730002CF817E0208808280AD12389A28861882C
:100740002846FFF72CFFE188284600F02BF809E047
:100750002389A28861882846FFF745FFE18828465B
:1007600000F029F870BD1AB183890B43838102E040
:1007700083898B4383817047028B4FF6F3731A4052
:100780000283028B0A4302837047028B4FF2FF33CE
:100790001A400283028B4FF6FF7303EA01231A43C8
:1007A00002837047828B4FF6F3731A408283828BE9
:1007B0000A4382837047828B4FF2FF331A40828351
:1007C000828B4FF6FF7303EA01231A43828370473B
:1007D00000220288184B98420ED0184B98420BD03A
:1007E000B0F1804F08D0164B984205D0154B984277
:1007F00002D0154B984204D14FF68F731A404B88A4
:100800001A43124B984207D0114B984204D04FF62E
:10081000FF431A400B891A4302804B68C3620B885E
:100820000385054B984202D0044B984201D18B7A44
:1008300003860123838270470000014000040140C9
:100840000004004000080040000C00400010004080
:100850000014004000B589B001210846FFF79EFD55
:1008600001210320FFF77AFD012208214248FFF70A
:100870000AFD4FF48070039002208DF810000320D1
:100880008DF8110002208DF8130003A93A48FFF7F4
:10089000B2FC012003908DF810008DF8130003A91D
:1008A0003648FFF7A8FC0920ADF818003120079062
:1008B0000020ADF82000ADF81A008DF8220006A93E
:1008C0002F48FFF785FF2E4880884FF68F7108402C
:1008D0002B4988800846808840F0100088800846B0
:1008E00000894FF68F710840254908810846008924
:1008F00040F040000881084600894FF6F871084032
:100900001F4908810846008940F006000881084612
:1009100000894FF67F71084019490881084600890F
:1009200040F080000881012211461548FFF71BFFA7
:1009300001211348FFF7C0FE0020ADF80000ADF81C
:1009400002000120ADF804000020ADF80600ADF86B
:10095000080069460A48FFF7CFFE19208DF81400F9
:1009600001208DF815008DF816008DF8170005A8E8
:10097000FFF7B6FC09B000BD0000024000040240D1
:10098000000001401FB501210846FFF7F7FC0920D0
:10099000ADF804004F2002900020ADF80C00ADF837
:1009A000060001A94FF08040FFF712FF4FF0804092
:1009B00000894FF68F7108404FF08041088108464A
:1009C00000890881084600894FF6F87108404FF009
:1009D000804108810846008940F006000881012115
:1009E0008807FFF75DFE012211469007FFF7BBFE67
:1009F00001218807FFF760FE1C208DF8000002200F
:100A00008DF8010001208DF802008DF80300684682
:100A1000FFF766FC1FBD042000F002F800BFFEE7F0
:100A200000BF0549097801F080010029F9D0C0F321
:100A30000801014A51607047001001401D480068DC
:100A400040F001001B4908601A481430006840F06B
:100A500010001849143108601748406A40F07000CF
:100A6000154948620846006840F4002008600846BE
:100A7000406820F4002048600846806840F4002068
:100A800088600846C06840F48020C8600B488068D1
:100A900040F2D9210843094988600846C06842F2FB
:100AA0000C0108430549C8600846C06940F00100D0
:100AB000C861704730380240000002400010014019
:100AC00000BFFEE7014A024900F013B8150B000809
:100AD0000800002002E008C8121F08C1002AFAD14D
:100AE00070477047002001E001C1121F002AFBD1AE
:100AF00070472DE9F04116460F460446002503E0F5
:100B00003946B047641C6D1C20780028F8D128466F
:100B1000BDE8F08110B503460C46D8B2FFF780FF60
:100B200010BD0000FFF78AFF0FA0FFF7CBFFFFF714
:100B300091FEFFF727FF01211048FFF7C9FB11E0E5
:100B40000F48006870B10E4800680E490968884275
:100B500008D10DA0FFF7B6FF01210848FFF7B6FB4B
:100B6000FFF759FFECE7000063686970323A5445BB
:100B700058542053544152540D0A000000040240BE
:100B8000040000200000002063686970323A746538
:100B9000737420706173730D0A000000BC0B0008B1
:100BA000000000200C000000D40A0008C80B000858
:100BB0000C00002004200000E40A000800000000EF
:080BC00000000000000000002D
:040000050800019559
:00000001FF
