:020000040800F2
:1000000000040020A9010008D5020008CD02000864
:10001000D1020008F10100088D0600080000000070
:1000200000000000000000000000000019030008AC
:10003000F501000800000000D702000805040008D0
:10004000C3010008C3010008C3010008C301000880
:10005000C3010008C3010008C3010008C301000870
:10006000C3010008C3010008C3010008C301000860
:10007000C3010008C3010008C3010008C301000850
:10008000C3010008C3010008C3010008000000000C
:10009000000000000000000000000000C301000894
:1000A000C3010008C3010008C3010008C301000820
:1000B000C3010008C3010008C3010008C301000810
:1000C000C3010008C3010008C3010008C301000800
:1000D000C3010008C3010008C301000800000000BC
:1000E000C3010008C3010008C301000800000000AC
:1000F000000000000000000000000000C301000834
:1001000000000000C3010008C3010008C30100088B
:1001100000000000000000000000000000000000DF
:10012000C3010008C3010008C3010008C30100089F
:10013000C3010008000000000000000000000000F3
:10014000000000000000000000000000C3010008E3
:10015000C3010008C3010008C3010008C30100086F
:10016000C3010008C30100080000000000000000F7
:10017000000000000000000000000000000000007F
:1001800000000000C30100080000000000000000A3
:10019000C3010008DFF80CD000F018F80048004751
:1001A000AF060008000400200648804706480047C4
:1001B000FEE7FEE7FEE7FEE7FEE7FEE7FEE7FEE717
:1001C000FEE7FEE70904000895010008064C074D0C
:1001D00006E0E06840F0010394E807009847103417
:1001E000AC42F6D3FFF7DAFFB8060008C8060008ED
:1001F00000BFFEE77047F0B50A4600210023002447
:1002000000BF3DE0012505FA01F3156805EA030486
:100210009C4234D105684F000326BE40B5430560BB
:1002200015794E00B5400668354305601579012DF6
:1002300002D01579022D16D185684F000326BE40E5
:10024000B543856055794E00B54086683543856075
:10025000456801268E40B5434560456896798E40D5
:10026000B6B235434560C5684F000326BE40B5436E
:10027000C560D5794E00B540C6683543C560491C98
:100280001029BFD3F0BDF0B5002300244D07ED0EBB
:1002900002FA05F3CE1000F1200555F826504E075E
:1002A000F70E0F26BE40B543CF1000F1200646F8EA
:1002B0002750CE1000F1200555F8265045EA0304DA
:1002C000CE1000F1200545F82640F0BD00BFFEE746
:1002D00000BFFEE77047704729B1064A1268024323
:1002E000044B1A6004E0034A12688243014B1A600F
:1002F000704700003038024029B1064A12680243B4
:10030000044B1A6004E0034A12688243014B1A60EE
:100310007047000044380240704700000CB50020D0
:10032000019000903348006840F480303149086003
:1003300000BF3048006800F4003000900198401C75
:100340000190009818B90198B0F5A04FF1D1294853
:10035000006800F4003010B10120009001E000209E
:1003600000900098012844D122484030006840F0B5
:1003700080502049403108601F48006840F44040E8
:100380001D4908601B48083000681A490831086098
:100390000846006808600846006840F4805008601D
:1003A0001648091F0860081F006840F08070091F88
:1003B000086000BF0F48006800F000700028F9D006
:1003C00040F202700E4908600A480830006820F0C8
:1003D00003000849083108600846006840F0020040
:1003E000086000BF03480830006800F00C000828CF
:1003F000F8D10CBD0038024000700040085441079D
:10040000003C02407047000010B51248006840F000
:1004100001001049086000200E49083108600D48AD
:1004200000680D4908400B4908600C48091D086028
:10043000081F006820F48020091F0860002005497B
:100440000C310860FFF76AFF4FF000600449086054
:1004500010BD000000380240FFFFF6FE10300024FF
:1004600008ED00E021B1028842F08002028004E041
:1004700002884FF67F731A400280704721B10288CC
:1004800042F00102028004E002884FF6FE731A4037
:100490000280704731B1B0F8442042F40042A0F825
:1004A000442005E0B0F84420C2F30E02A0F8442036
:1004B0007047000000B58BB001210846FFF71CFF14
:1004C00001210846FFF708FF4FF4807001900220D9
:1004D0008DF8080003208DF8090000208DF80A002F
:1004E00001208DF80B0001A91E48FFF784FE0122B0
:1004F00008211C48FFF7C7FE40F22B10099000208E
:10050000ADF82000ADF82200ADF828008DF82A00E3
:1005100008A9154800F078F86020ADF80C0001201B
:10052000ADF80E000020ADF818009520059003A945
:100530000D4800F01BF808210B4800F055F8012188
:100540000948FFF78FFF0021074800F05AF8012102
:100550000548FFF793FF01210348FFF79BFF0BB00E
:1005600000BD0000000002400000014070B5002402
:1005700000220023058C4FF6FE7635400584028C60
:100580008388048B4FF68F752C40B51E2C400D8848
:100590002C43751E2A408D892A434D882A43104DCD
:1005A000A84202D00F4DA84213D14FF6F7752A404A
:1005B000CD892A434FF6FB752A408D882A434FF692
:1005C000FF652B404FF6FF552B400D8A2B434D8A7C
:1005D0002B43838004838D684563028470BD0000D3
:1005E00000000140000401400A460021018B4FF247
:1005F000FF7319404FF6FF7303EA02231943018387
:10060000704741627047000000220288184B9842F0
:100610000ED0184B98420BD0B0F1804F08D0164B3B
:10062000984205D0154B984202D0154B984204D100
:100630004FF68F731A404B881A43124B984207D0DB
:10064000114B984204D04FF6FF431A400B891A43CE
:1006500002804B68C3620B880385054B984202D029
:10066000044B984201D18B7A038601238382704721
:100670000000014000040140000400400008004068
:10068000000C0040001000400014004000BFFEE7D6
:1006900002E008C8121F08C1002AFAD1704770474B
:1006A000002001E001C1121F002AFBD17047FFF7B3
:1006B00001FF00BFFEE70000C806000800000020A0
:0806C00000040000A006000880
:040000050800019559
:00000001FF
