:020000040800F2
:1000000040040020A90100082B0200082302000878
:10001000270200081D02000849080008000000002F
:10002000000000000000000000000000E9020008DD
:100030002102000800000000A5020008D503000806
:10004000C3010008C3010008C3010008C301000880
:10005000C3010008C3010008C3010008C301000870
:10006000C3010008C3010008C3010008C301000860
:10007000C3010008C3010008C3010008C301000850
:10008000C3010008C3010008C3010008000000000C
:10009000000000000000000000000000C301000894
:1000A00035040008A9040008C3010008C3010008C2
:1000B000C1040008D5040008ED040008C3010008CD
:1000C000C3010008C3010008C3010008C301000800
:1000D000C3010008C3010008C301000800000000BC
:1000E000C3010008C3010008C301000800000000AC
:1000F000000000000000000000000000C301000834
:1001000000000000C301000805050008C301000845
:1001100000000000000000000000000000000000DF
:10012000C3010008C3010008C3010008C30100089F
:10013000C3010008000000000000000000000000F3
:10014000000000000000000000000000C3010008E3
:10015000C3010008C3010008C3010008C30100086F
:10016000C3010008C30100080000000000000000F7
:10017000000000000000000000000000000000007F
:1001800000000000C30100080000000000000000A3
:10019000C3010008DFF80CD000F02EF8004800473B
:1001A000F10900084004002006488047064800473F
:1001B000FEE7FEE7FEE7FEE7FEE7FEE7FEE7FEE717
:1001C000FEE7FEE7D90300089501000830B50B46AD
:1001D000014600202022012409E021FA02F59D4277
:1001E00005D303FA02F5491B04FA02F52844151E4B
:1001F000A2F10102F1DC30BD064C074D06E0E068DB
:1002000040F0010394E8070098471034AC42F6D35D
:10021000FFF7C4FF100B0008300B000800BFFEE71B
:10022000704700BFFEE700BFFEE7704770B50021D2
:1002300000230F22C4781CB3174C246804F4E06434
:10024000C4F5E064C4F30721C1F10404E3B20A4138
:1002500044789C40E1B28478144021430C07210E7D
:100260000E4C05786155047804F01F050124AC405C
:1002700005786D11AD0005F1E025C5F8004109E0F4
:10028000047804F01F050124AC40054D0678761172
:1002900045F8264070BD00000CED00E000E400E0F1
:1002A00080E100E07047000029B1064A126802436D
:1002B000044B1A6004E0034A12688243014B1A603F
:1002C000704700004038024029B1064A12680243D4
:1002D000044B1A6004E0034A12688243014B1A601F
:1002E0007047000044380240704700000CB5002001
:1002F000019000903348006840F480303149086034
:1003000000BF3048006800F4003000900198401CA5
:100310000190009818B90198B0F5A04FF1D1294883
:10032000006800F4003010B10120009001E00020CE
:1003300000900098012844D122484030006840F0E5
:1003400080502049403108601F48006840F4404018
:100350001D4908601B48083000681A4908310860C8
:100360000846006808600846006840F4805008604D
:100370001648091F0860081F006840F08070091FB8
:10038000086000BF0F48006800F000700028F9D036
:1003900040F202700E4908600A480830006820F0F8
:1003A00003000849083108600846006840F0020070
:1003B000086000BF03480830006800F00C000828FF
:1003C000F8D10CBD003802400070004008544107CD
:1003D000003C02407047000010B51248006840F031
:1003E00001001049086000200E49083108600D48DE
:1003F00000680D4908400B4908600C48091D086059
:10040000081F006820F48020091F086000200549AB
:100410000C310860FFF76AFF4FF000600449086084
:1004200010BD000000380240FFFFF6FE103000242F
:1004300008ED00E010B50121164800F07EF8012813
:1004400027D10121134800F069F81348006838B932
:100450001248406A124908604FF08040406A486084
:100460000D48006803280FD10C48406A0C49886089
:100470004FF08040406AC86001200A4908600022AD
:100480000121044800F06AF803480068401C024952
:10049000086010BD00400140040000200000014041
:1004A0000C0000200000002010B50121034800F0DE
:1004B00044F80121014800F031F810BD000001406E
:1004C00010B50121880700F038F80121880700F0F5
:1004D00025F810BD10B50121034800F02EF80121C8
:1004E000014800F01BF810BD0004004010B50121C8
:1004F000034800F022F80121014800F00FF810BD78
:100500000008004010B50121034800F016F8012151
:10051000014800F003F810BD000C0040CA430282FD
:10052000704721B1028842F00102028004E0028893
:100530004FF6FE731A400280704730B50246002025
:1005400000230024158A05EA0103958905EA0104C0
:1005500013B10CB1012000E0002030BD1AB1838935
:100560000B43838102E083898B43838170470000C2
:100570001FB501214FF00110FFF7A6FE01210F204A
:10058000FFF792FE40F2F31002900020ADF8040055
:10059000ADF80600ADF80C008DF80E0001A9584822
:1005A00000F0BAF81020ADF8060001A9800600F0AE
:1005B000B3F82020ADF8060001A9524800F0ACF8CD
:1005C0004020ADF8060001A94F4800F0A5F86020D2
:1005D000ADF8060001A94D4800F09EF813200290E6
:1005E0000020ADF8060001A9494800F095F8002167
:1005F000434800F08FF800214FF0804000F08AF867
:100600000021434800F086F801213D48FFF786FFAE
:10061000012211463A48FFF7A1FF01213848FFF7B0
:1006200080FF01218807FFF779FF0122114690071B
:10063000FFF794FF01218807FFF773FF012131487D
:10064000FFF76CFF012211462E48FFF787FF0121BB
:100650002C48FFF766FF01212B48FFF75FFF0122BF
:1006600011462948FFF77AFF01212748FFF759FF74
:1006700001212648FFF752FF012211462348FFF7C8
:100680006DFF01212148FFF74CFF01212048FFF7B2
:1006900045FF012211461E48FFF760FF01211C485B
:1006A000FFF73FFF19208DF8000001208DF80100B1
:1006B00002208DF8020001208DF803006846FFF744
:1006C000B5FD18208DF800006846FFF7AFFD1C202F
:1006D0008DF800006846FFF7A9FD1D208DF8000089
:1006E0006846FFF7A3FD1E208DF800006846FFF75F
:1006F0009DFD32208DF800006846FFF797FD1FBD75
:10070000000001400004004000080040000C0040D0
:10071000004001404162704700220288184B984215
:100720000ED0184B98420BD0B0F1804F08D0164B2A
:10073000984205D0154B984202D0154B984204D1EF
:100740004FF68F731A404B881A43124B984207D0CA
:10075000114B984204D04FF6FF431A400B891A43BD
:1007600002804B68C3620B880385054B984202D018
:10077000044B984201D18B7A038601238382704710
:100780000000014000040140000400400008004057
:10079000000C00400010004000140040042000F055
:1007A00003F800BFFEE7000000BF0549097801F02B
:1007B00080010029F9D0C0F30801014A5160704757
:1007C000001001401D48006840F001001B4908600E
:1007D0001A481430006840F01000184914310860BD
:1007E0001748406A40F070001549486208460068A2
:1007F00040F4002008600846406820F4002048606B
:100800000846806840F4002088600846C06840F4CC
:100810008020C8600B48806840F2D921084309490C
:1008200088600846C06842F20C0108430549C86068
:100830000846C06940F00100C86170473038024086
:10084000000002400010014000BFFEE70FB4054B5E
:1008500010B503A9044A029800F018F810BC5DF81E
:1008600014FB0000E10900080800002002E008C8AD
:10087000121F08C1002AFAD170477047002001E01A
:1008800001C1121F002AFBD1704700002DE9FF4F64
:1008900089B09B460446002506E025280BD05A4621
:1008A0000B999047641C6D1C20780028F5D10DB081
:1008B0002846BDE8F08F0027B8460122474900E0EE
:1008C000074314F8013F203B02FA03F00842F7D136
:1008D00020782E2819D114F8010F47F004072A2890
:1008E0000ED06FF02F022078A0F1300109290CD82A
:1008F00008EB880102EB410100EB0108641CF2E700
:100900000A98641C50F8048B0A9020780028CED0F6
:10091000642808D0692806D075281ED05A460B993D
:1009200090476D1C58E00A994FF00A0901C90A91D5
:10093000002802DA40422D2102E0390504D52B219E
:100940008DF82010012103E0F90704D02021F7E7FA
:100950008A4608AE0DE00021FAE70A994FF00A092D
:1009600001C90A91F7E74946FFF730FC303106F834
:10097000011D0028F7D1ADEB060000F12009780732
:1009800001D44FF00108C84502DDA8EB090000E0E2
:1009900000208046002706E008A85A46C05D0B9953
:1009A00090476D1C7F1C5745F6DB04E030205A460B
:1009B0000B9990476D1CB8F10001A8F10108F5DC16
:1009C00005E016F8010B5A460B9990476D1CB9F1DA
:1009D0000001A9F10109F4DC641C65E709280100A4
:1009E00010B503460C46D8B2FFF7DEFE10BD00007E
:1009F000FFF7E8FE1AA0FFF729FFFFF7B9FD2EE089
:100A00001B48006800282AD01A48806819490968DC
:100A1000884203DD18A0FFF719FF02E01BA0FFF7D3
:100A200015FF1448C06813494968884203DA1CA0BE
:100A3000FFF70CFF02E020A0FFF708FF0D48426817
:100A4000016823A0FFF702FF0A48C268816820A05E
:100A5000FFF7FCFE26A0FFF7F9FEFFF79FFECFE7AA
:100A6000544558542053544152540D0A000000007C
:100A7000000000200C00002054494D312055505FEB
:100A80004D4F444520504153530D0A0054494D31B8
:100A90002055505F4D4F4445204641494C0D0A00BA
:100AA00054494D3220444F574D5F4D4F44452050DF
:100AB0004153530D0A00000054494D3220444F5712
:100AC0004D5F4D4F4445204641494C0D0A00000002
:100AD00054494D312D3E434E54203D2025642C5425
:100AE000494D322D3E434E54203D2025640D0A00D1
:100AF0004578697420696E746572727570742061CE
:100B00006E64207465737420656E64730D0A000052
:100B1000300B0008000000200C0000006C080008EA
:100B20003C0B00080C000020340400007C08000886
:0C0B3000000000000000000000000000B9
:040000050800019559
:00000001FF
