:020000040800F2
:1000000008130020A9010008F7020008EF02000809
:10001000F3020008E9020008F906000800000000E9
:10002000000000000000000000000000FB020008CB
:10003000ED02000800000000F9020008E5030008D6
:10004000C3010008C3010008C3010008C301000880
:10005000C3010008C3010008C3010008C301000870
:10006000C3010008C3010008C3010008C301000860
:10007000C3010008C3010008C3010008C301000850
:10008000C3010008C3010008C3010008000000000C
:10009000000000000000000000000000C301000894
:1000A000C3010008C3010008C3010008C301000820
:1000B000C3010008C3010008C3010008C301000810
:1000C000C3010008C3010008C3010008C301000800
:1000D000C3010008C3010008C301000800000000BC
:1000E000C3010008C3010008C301000800000000AC
:1000F000000000000000000000000000C301000834
:1001000000000000C3010008C3010008C30100088B
:1001100000000000000000000000000000000000DF
:10012000C3010008C3010008C3010008C30100089F
:10013000C3010008000000000000000000000000F3
:10014000000000000000000000000000C3010008E3
:10015000C3010008C3010008C3010008C30100086F
:10016000C3010008C30100080000000000000000F7
:10017000000000000000000000000000000000007F
:1001800000000000C30100080000000000000000A3
:10019000C3010008DFF80CD000F04AF8004800471F
:1001A000AD0B0008081300200648804706480047AA
:1001B000FEE7FEE7FEE7FEE7FEE7FEE7FEE7FEE717
:1001C000FEE7FEE7E9030008950100082DE9F05F6E
:1001D0000546002092469B468846064681464024B6
:1001E0001BE0284641464746224600F042F8534667
:1001F0005A46C01A914110D311461846224600F0C3
:1002000029F82D1A67EB01084F46224601200021EC
:1002100000F020F817EB00094E41201EA4F1010464
:10022000DFDC484631462A464346BDE8F09F0000E1
:10023000064C074D06E0E06840F0010394E8070033
:1002400098471034AC42F6D3FFF7A8FF500C0008D3
:10025000700C0008202A04DB203A00FA02F100208A
:1002600070479140C2F1200320FA03F319439040F4
:100270007047202A04DB203A21FA02F0002170475F
:1002800021FA02F3D040C2F12002914008431946FE
:10029000704770B58C1810F8015B15F0070301D199
:1002A00010F8013B2A1106D110F8012B03E010F8D9
:1002B000016B01F8016B5B1EF9D12B0705D40023FC
:1002C000521E0DD401F8013BFAE710F8013BCB1A9E
:1002D000921C03E013F8015B01F8015B521EF9D593
:1002E000A142D8D3002070BD00BFFEE7704700BF19
:1002F000FEE700BFFEE77047704770470CB500206F
:10030000019000903348006840F480303149086023
:1003100000BF3048006800F4003000900198401C95
:100320000190009818B90198B0F5A04FF1D1294873
:10033000006800F4003010B10120009001E00020BE
:1003400000900098012844D122484030006840F0D5
:1003500080502049403108601F48006840F4404008
:100360001D4908601B48083000681A4908310860B8
:100370000846006808600846006840F4805008603D
:100380001648091F0860081F006840F08070091FA8
:10039000086000BF0F48006800F000700028F9D026
:1003A00040F202700E4908600A480830006820F0E8
:1003B00003000849083108600846006840F0020060
:1003C000086000BF03480830006800F00C000828EF
:1003D000F8D10CBD003802400070004008544107BD
:1003E000003C02407047000010B51548006840F41A
:1003F0007000134908601348006840F0010011497B
:10040000086000200F49083108600E4800680E4956
:1004100008400C4908600D48091D0860081F006865
:1004200020F48020091F0860002006490C31086074
:10043000FFF764FF4FF0006001498039086010BD8C
:1004400088ED00E000380240FFFFF6FE1030002487
:100450002DE9F84F07460124AAE04FF00008C146F5
:10046000002576E004EB8400544901EB001050F8BD
:100470002500076004EB840001EB001050F8250014
:10048000D0F800A0781C38B904EB84004C4901EB8B
:10049000001050F825901DE03FB904EB8400494955
:1004A00001EB001050F8259014E0B7F1A53F07D1FB
:1004B00004EB8400444901EB001050F8259009E05A
:1004C000B7F15A3F06D104EB8400404901EB00101C
:1004D00050F8259004EB8400384901EB001010F827
:1004E0002500242834D004EB840001EB001050F8E0
:1004F000250068B3CA4510D004EB84000A4602EB1D
:100500000010CDF8009050F8251053463A46304878
:1005100000F0F4F808F101080BE004EB8400274A2E
:1005200002EB001050F8251053463A4629A000F07F
:10053000E5F804EB8400324901EB001050F8250087
:1005400004EB84011D4A02EB011151F825100860EB
:100550006D1C142D86DB2BA000F0D0F8082C15D2D2
:10056000DFE804F00406080A0C0E101201260EE063
:1005700002260CE003260AE0042608E0052606E031
:10058000092604E00A2602E00B2600E000BF00BFB7
:10059000B8F1000F05D13A4631461BA000F0AEF885
:1005A00005E043463A4631461FA000F0A7F8641C18
:1005B000022CFFF652AFBDE8F88F000000000020CB
:1005C000800200200005002080070020000A002093
:1005D0000C0C000830782530387820776972746503
:1005E0002030782530387820737563636573732CF9
:1005F00076616C65203D203078253038780D0A0012
:10060000840C00200D0A000054494D2564207772A7
:1006100069746520307825303878207465737420CB
:10062000706173730D0A000054494D256420777280
:1006300069746520307825303878207465737420AB
:100640006661696C2C6572726F72206E756D626581
:10065000723A2025640D0A0000BF0549097801F0AF
:1006600080010029F9D0C0F30801014A51607047A8
:10067000001001401D48006840F001001B4908605F
:100680001A481430006840F010001849143108600E
:100690001748406A40F070001549486208460068F3
:1006A00040F4002008600846406820F400204860BC
:1006B0000846806840F4002088600846C06840F41E
:1006C0008020C8600B48806840F2D921084309495E
:1006D00088600846C06842F20C0108430549C860BA
:1006E0000846C06940F00100C861704730380240D8
:1006F000000002400010014000BFFEE70FB4054BB0
:1007000010B503A9044A029800F018F810BC5DF86F
:1007100014FB00009F0B0008800C002002E008C8BA
:10072000121F08C1002AFAD170477047002001E06B
:1007300001C1121F002AFBD1704700002DE9FF4FB5
:100740008DB00F460546002606E025280BD0DDE9D2
:100750000F1290476D1C761C28780028F5D111B037
:100760003046BDE8F08F0024A246A1460122EC49A4
:1007700000E0044315F8013F203B02FA03F0084271
:10078000F7D128782A2810D06FF02F022878A0F10E
:100790003001092914D80AEB8A0102EB410144F027
:1007A000020400EB010A6D1CF0E701CF5FEA000ACA
:1007B00003D544F40054CAF1000A44F002046D1C4D
:1007C00028782E2817D115F8010F44F004042A28A0
:1007D0000ED06FF02F022878A0F1300109290AD835
:1007E00009EB890102EB410100EB01096D1CF2E705
:1007F00057F8049B6D1C28786C280FD006DC4C2819
:1008000017D068280DD06A2814D104E0742810D0BD
:100810007A280FD10DE044F400140AE044F4801467
:1008200001E044F440146978814202D104F5801457
:100830006D1C6D1C2A786E2A1FD00CDC632A31D007
:1008400004DC002A8BD0582A11D1A3E0642A68D096
:10085000692A0CD165E0732A2ED004DC6F2A73D08C
:10086000702A04D19BE0752A6FD0782A6ED010468A
:10087000DDE90F129047761C50E1C4F302500228C4
:1008800006D0032809D0042801CF09D0066045E12D
:1008900001CFF117C0E9006140E101CF06803DE1E1
:1008A00006703BE117F8040B8DF8000000208DF86E
:1008B0000100EB46012003E057F804BB4FF0FF3086
:1008C00061074FF0000102D40DE008F101018846F4
:1008D00049450FDA8045F8DB1BF808100029F4D1F0
:1008E00008E008F1010188468142FADB1BF8081094
:1008F0000029F6D1DDE90F23AAEB08008146214645
:1009000000F036F9304400EB080604E0DDE90F1290
:100910001BF8010B9047B8F10108F7D22146484671
:10092000F7E00A21C4F302534FF0000B0891022BA9
:1009300004D001CFC117032B09D00AE0FF1D27F017
:100940000707F7E8020108E032E01FE020E000B20C
:10095000C117042B01D140B2C117031E71F100036E
:1009600007DA4FF0000CD0EB0C006CEB01012D23EB
:1009700002E0230504D52B238DF82430012303E066
:10098000E30701D02023F7E7984658E00A2110E05A
:1009900010210EE010204FF0000B08900CE0102109
:1009A0004FF0000B44F004044FF00809089103E0F5
:1009B00008214FF0000B0891C4F30253022B04D01E
:1009C00001CF0021032B06D006E0FF1D27F007070B
:1009D000F7E8020103E080B2042B00D1C0B24FF06F
:1009E000000823072BD5702A07D0DDF820C08CF033
:1009F000100C5CEA0B0C05D00EE040238DF824307F
:100A0000012308E050EA010306D030238DF824309A
:100A10008DF8252002239846DDF820C08CF0080CC4
:100A20005CEA0B0C0BD150EA010301D1630706D538
:100A300030238DF824304FF00108A9F10109582A1C
:100A400004D038A20B9208AA0A920BE03AA2F9E766
:100A50005B46089AFFF7BAFB0B9B9B5C0A9A521EF7
:100A60000A92137050EA0102F2D10A98ADEB00002D
:100A700000F1200B600702D524F4803401E04FF030
:100A80000109D94502DDA9EB0B0000E0002000EBD5
:100A90000B0141440890AAEB010AE00306D4DDE90A
:100AA0000F232146504600F063F806444FF000093A
:100AB00008E009A911F80900DDE90F12904709F1D2
:100AC0000109761CC145F4DBE0030CD5DDE90F23F9
:100AD0002146504600F04CF8064404E0DDE90F12D0
:100AE00030209047761C0899481E08900029F5DCB4
:100AF00008E00A980A990078491C0A91DDE90F126A
:100B00009047761CBBF10001ABF1010BF1DC2146F3
:100B10005046DDE90F2300F019F806446D1C1BE672
:100B200009280100303132333435363738396162C3
:100B30006364656600000000303132333435363787
:100B40003839414243444546000000002DE9F04158
:100B5000044600251E461746880404D405E039469D
:100B60002020B0476D1C641EF9D52846BDE8F081F1
:100B70002DE9F041044600251E469046C80301D5E4
:100B8000302700E02027880404D505E04146384698
:100B9000B0476D1C641EF9D52846BDE8F08110B53C
:100BA00003460C46D8B2FFF757FD10BDFFF762FDB4
:100BB00010A0FFF7A3FD1348006840F00F00114993
:100BC0000860081D0068104908430E49091D0860A7
:100BD0004FF0FF30FFF73CFC0020FFF739FC4FF0EF
:100BE000A530FFF735FC4FF05A30FFF731FC00BF5E
:100BF000FEE70000544558542053544152540D0A06
:100C00000000000040380240010007003078253025
:100C100038782077697274652030782530387820EC
:100C20006661696C2C76616C65203D2030782530DA
:100C300038782C65787065637465642076616C75AE
:100C400065203D203078253038780D0A00000000FE
:100C5000700C000800000020840C000092020008C4
:100C6000680F0008840C0020840600002C07000890
:100C700012101C014044041A30041A4C041A48048F
:100C80001A40041A3C041A38041A34041A2C041AA0
:100C900028041A24041A20041A1C041A18041A140A
:100CA000041A0C041A08041A040421240140101B1D
:100CB0004050041A4C041A48041915194C11194CC7
:100CC00011194C11194C11194C11194C11194C11C5
:100CD000194C11194C11194C11194C11194C1119AD
:100CE0004C1119373904111B10044C19041A48040B
:100CF00019191B403C041A38041A34041A2C041A1B
:100D000028041A24041A20041A1C041A18041A1499
:100D1000041A0C041A08041A0404694C39501A08FD
:100D20005019041A4804196D1B403C041A38041A5F
:100D300034041A2C041A28041A24041A20041A1C35
:100D4000041A18041A14041A0C041A08041A0404C5
:100D500011290469501A0CF019041A4C041A480499
:100D600019C51B403C041A38041A34041A2C041AFE
:100D700028041A24041A20041A1C041A18041A1429
:100D8000041A0C041A08041A040411290429501D19
:100D900040014038041A34041A2C041A28041A2476
:100DA000041A20041A18041A14041A0C041A080449
:100DB0001A0404112904011B1B10444C19041A2C99
:100DC000041A28041A24041A20041A18041A1404F1
:100DD0001A0C0411290401271E1048014050041A5E
:100DE00034041A2C041A28041A24041A20041A1889
:100DF000041A14041A0C0411290401271BFFFF0410
:100E00003123EF035B1F1F100911041AFC04235543
:100E1000154B878704693C1AF7042AFD0C194039E1
:100E200014AA7F4C091201193019068BBBBB5C4117
:100E30004B5F5F4C5AF84C13F8094220091E981A70
:100E4000FD04091E4C13C80C2A2004092250410934
:100E50001E50C10922F02906091E544B880BA00917
:100E60001294193B7938324732F732F05A8F3809E9
:100E700016040912502A0B147129CB091E44F9508B
:100E800019F0094654695001FF01FF017E23FFFF5D
:100E900032A523A5011B050508190D0912041AA284
:100EA0000429204B85850441792059403914AA250D
:100EB0004C091201211AA9068BA1A14041697C5A53
:100EC000A04C1308093A2050091D98290409224C06
:100ED000095750094EF009129059183938290C3128
:100EE00029389A858C091204091250193339404166
:100EF000290C091E44F95029F0094554321A23FFE0
:100F00007F325A235A021A1A111A5A0D091604234B
:100F100050101A022829044129141A52046A584010
:100F20005914894C0912014918A96C09124C4B88B3
:100F30000BA009229809224C0957500949F01907BA
:100F40000914905918413242325232509A0A8C098F
:100F500012040912502A0A14712920091E44091E7C
:080F600050093A544100000061
:040000050800019559
:00000001FF
