:020000040800F2
:1000000018100020A90100082B0200082302000894
:10001000270200081D020008150800080000000063
:10002000000000000000000000000000E9020008DD
:100030002102000800000000A5020008D503000806
:10004000C3010008C3010008C3010008C301000880
:10005000C3010008C3010008C3010008C301000870
:10006000C3010008C3010008C3010008C301000860
:10007000C3010008C3010008C3010008C301000850
:10008000C3010008C3010008C3010008000000000C
:10009000000000000000000000000000C301000894
:1000A000C301000841040008C3010008C30100089F
:1000B0006D040008C3010008C3010008C301000863
:1000C000C3010008C3010008C3010008C301000800
:1000D000C3010008C3010008C301000800000000BC
:1000E000C3010008C3010008C301000800000000AC
:1000F000000000000000000000000000C301000834
:1001000000000000C3010008C3010008C30100088B
:1001100000000000000000000000000000000000DF
:10012000C3010008C3010008C3010008C30100089F
:10013000C3010008000000000000000000000000F3
:10014000000000000000000000000000C3010008E3
:10015000C3010008C3010008C3010008C30100086F
:10016000C3010008C30100080000000000000000F7
:10017000000000000000000000000000000000007F
:1001800000000000C30100080000000000000000A3
:10019000C3010008DFF80CD000F02EF8004800473B
:1001A000BD0900081810002006488047064800478F
:1001B000FEE7FEE7FEE7FEE7FEE7FEE7FEE7FEE717
:1001C000FEE7FEE7D90300089501000830B50B46AD
:1001D000014600202022012409E021FA02F59D4277
:1001E00005D303FA02F5491B04FA02F52844151E4B
:1001F000A2F10102F1DC30BD064C074D06E0E068DB
:1002000040F0010394E8070098471034AC42F6D35D
:10021000FFF7C4FF8C0A0008AC0A000800BFFEE725
:10022000704700BFFEE700BFFEE7704770B50021D2
:1002300000230F22C4781CB3174C246804F4E06434
:10024000C4F5E064C4F30721C1F10404E3B20A4138
:1002500044789C40E1B28478144021430C07210E7D
:100260000E4C05786155047804F01F050124AC405C
:1002700005786D11AD0005F1E025C5F8004109E0F4
:10028000047804F01F050124AC40054D0678761172
:1002900045F8264070BD00000CED00E000E400E0F1
:1002A00080E100E07047000029B1064A126802436D
:1002B000044B1A6004E0034A12688243014B1A603F
:1002C000704700004038024029B1064A12680243D4
:1002D000044B1A6004E0034A12688243014B1A601F
:1002E0007047000044380240704700000CB5002001
:1002F000019000903348006840F480303149086034
:1003000000BF3048006800F4003000900198401CA5
:100310000190009818B90198B0F5A04FF1D1294883
:10032000006800F4003010B10120009001E00020CE
:1003300000900098012844D122484030006840F0E5
:1003400080502049403108601F48006840F4404018
:100350001D4908601B48083000681A4908310860C8
:100360000846006808600846006840F4805008604D
:100370001648091F0860081F006840F08070091FB8
:10038000086000BF0F48006800F000700028F9D036
:1003900040F202700E4908600A480830006820F0F8
:1003A00003000849083108600846006840F0020070
:1003B000086000BF03480830006800F00C000828FF
:1003C000F8D10CBD003802400070004008544107CD
:1003D000003C02407047000010B51548006840F42A
:1003E0007000134908601348006840F0010011498B
:1003F000086000200F49083108600E4800680E4967
:1004000008400C4908600D48091D0860081F006875
:1004100020F48020091F0860002006490C31086084
:10042000FFF764FF4FF0006001498039086010BD9C
:1004300088ED00E000380240FFFFF6FE1030002497
:1004400010B50121074800F040F8012808D101212A
:10045000044800F02BF804480068401C024908607A
:1004600010BD0000000001400000002010B5012177
:10047000880700F02AF8012808D10121800700F040
:1004800015F803480068401C0149086010BD0000D1
:100490000400002021B1028842F08002028004E0C2
:1004A00002884FF67F731A4002807047CA43028267
:1004B000704721B1028842F00102028004E0028804
:1004C0004FF6FE731A400280704730B50246002096
:1004D00000230024158A05EA0103958905EA010431
:1004E00013B10CB1012000E0002030BD1AB18389A6
:1004F0000B43838102E083898B4383817047000033
:1005000070B5002400220023058C4FF6FE7635409E
:100510000584028C8388048B4FF68F752C40B51EA2
:100520002C400D882C43751E2A408D892A434D8806
:100530002A43104DA84202D00F4DA84213D14FF6C6
:10054000F7752A40CD892A434FF6FB752A408D88DE
:100550002A434FF6FF652B404FF6FF552B400D8A7F
:100560002B434D8A2B43838004838D68456302842B
:1005700070BD000000000140000401400A46002157
:10058000018B4FF6F7731940114301837047000048
:1005900000220288184B98420ED0184B98420BD07C
:1005A000B0F1804F08D0164B984205D0154B9842B9
:1005B00002D0154B984204D14FF68F731A404B88E6
:1005C0001A43124B984207D0114B984204D04FF671
:1005D000FF431A400B891A4302804B68C3620B88A1
:1005E0000385054B984202D0044B984201D18B7A87
:1005F000038601238382704700000140000401400C
:100600000004004000080040000C004000100040C2
:10061000001400401FB501210846FFF755FE632076
:10062000ADF8040002900020ADF80C00ADF8060013
:100630008DF80E0001A91948FFF7AAFF1748008995
:100640004FF68F710840154908810846008940F02F
:1006500050000881124800884FF6F8710840104990
:1006600008800846008840F00500088001221146F5
:100670000A48FFF73BFF01210848FFF717FF192041
:100680008DF8000001208DF801008DF802008DF832
:1006900003006846FFF7CAFD1FBD000000000140CF
:1006A000080C00401FB501210846FFF7FDFD63203F
:1006B000ADF8040002900020ADF80C00ADF8060083
:1006C0008DF80E0001A94FF08040FFF761FF012275
:1006D00011469007FFF70AFF01218807FFF7E6FEA2
:1006E0001C208DF8000001208DF801008DF802001B
:1006F0008DF803006846FFF799FD1FBD00B589B06E
:1007000001210820FFF7D0FD6320ADF81800079005
:100710000020ADF82000ADF81A0006A91448FFF734
:1007200037FF1348001D00884FF68F7108401049AD
:10073000091D08800846008840F0400008806020BD
:10074000ADF804000120ADF806000020ADF810005F
:100750003220039001A90648FFF7D2FE0821044881
:10076000FFF70CFF01210248FFF794FE09B000BD1E
:10077000000C004000BF0549097801F08001002904
:10078000F9D0C0F30801014A5160704700100140E0
:100790001D48006840F001001B4908601A481430E9
:1007A000006840F010001849143108601748406A8A
:1007B00040F07000154948620846006840F4002087
:1007C00008600846406820F40020486008468068B9
:1007D00040F4002088600846C06840F48020C8606B
:1007E0000B48806840F2D9210843094988600846CF
:1007F000C06842F20C0108430549C8600846C06958
:1008000040F00100C86170473038024000000240EB
:100810000010014000BFFEE70FB4054B10B503A95F
:10082000044A029800F018F810BC5DF814FB0000B0
:10083000AD0900081000002002E008C8121F08C11E
:10084000002AFAD170477047002001E001C1121F51
:10085000002AFBD1704700002DE9FF4F89B09B466D
:100860000446002506E025280BD05A460B999047F0
:10087000641C6D1C20780028F5D10DB02846BDE819
:10088000F08F0027B8460122474900E0074314F8DB
:10089000013F203B02FA03F00842F7D120782E28CE
:1008A00019D114F8010F47F004072A280ED06FF071
:1008B0002F022078A0F1300109290CD808EB88011B
:1008C00002EB410100EB0108641CF2E70A98641C8A
:1008D00050F8048B0A9020780028CED0642808D0E5
:1008E000692806D075281ED05A460B9990476D1C72
:1008F00058E00A994FF00A0901C90A91002802DA62
:1009000040422D2102E0390504D52B218DF820101D
:10091000012103E0F90704D02021F7E78A4608AE59
:100920000DE00021FAE70A994FF00A0901C90A917E
:10093000F7E74946FFF74AFC303106F8011D002869
:10094000F7D1ADEB060000F12009780701D44FF094
:100950000108C84502DDA8EB090000E00020804640
:10096000002706E008A85A46C05D0B9990476D1C09
:100970007F1C5745F6DB04E030205A460B99904720
:100980006D1CB8F10001A8F10108F5DC05E016F8CE
:10099000010B5A460B9990476D1CB9F10001A9F162
:1009A0000109F4DC641C65E70928010010B5034661
:1009B0000C46D8B2FFF7DEFE10BD0000FFF7E8FEE0
:1009C0001AA0FFF729FF00201C4908601C49086095
:1009D000FFF720FEFFF792FEFFF764FE01211948A2
:1009E000FFF767FD01211848FFF763FD0121880724
:1009F000FFF75FFD19E012480068082815D10F487D
:100A000000680F490968B1EB400F07D10C48026834
:100A10000A4801680DA0FFF7FFFE06E008480268DB
:100A20000648016811A0FFF7F7FEE4E75445585463
:100A30002053544152540D0A0000000000000020D1
:100A40000400002000000140000C004054455354B5
:100A500020504153532C7431203D202564202C74A8
:100A600032203D2025640D0A0000000054455354F7
:100A7000204641494C2C7431203D202564202C74A3
:100A800032203D2025640D0A00000000AC0A000859
:100A9000000000201400000038080008C00A000808
:100AA00014000020041000004808000800000000A6
:100AB0000000000000000000000000000000000036
:040000050800019559
:00000001FF
