:020000040800F2
:1000000008040020A9010008D9020008D102000854
:10001000D5020008F10100080908000800000000EE
:100020000000000000000000000000001D030008A8
:10003000F501000800000000DB02000809040008C8
:10004000C3010008C3010008C3010008C301000880
:10005000C3010008C3010008C3010008C301000870
:10006000C3010008C3010008C3010008C301000860
:10007000C3010008C3010008C3010008C301000850
:10008000C3010008C3010008C3010008000000000C
:10009000000000000000000000000000C301000894
:1000A000C3010008C3010008C3010008C301000820
:1000B000C3010008C3010008C3010008C301000810
:1000C000C3010008C3010008C3010008C301000800
:1000D000C3010008C3010008C301000800000000BC
:1000E000C3010008C3010008C301000800000000AC
:1000F000000000000000000000000000C301000834
:1001000000000000C3010008C3010008C30100088B
:1001100000000000000000000000000000000000DF
:10012000C3010008C3010008C3010008C30100089F
:10013000C3010008000000000000000000000000F3
:10014000000000000000000000000000C3010008E3
:10015000C3010008C3010008C3010008C30100086F
:10016000C3010008C30100080000000000000000F7
:10017000000000000000000000000000000000007F
:1001800000000000C30100080000000000000000A3
:10019000C3010008DFF80CD000F018F80048004751
:1001A0006D080008080400200648804706480047FC
:1001B000FEE7FEE7FEE7FEE7FEE7FEE7FEE7FEE717
:1001C000FEE7FEE70D04000895010008064C074D08
:1001D00006E0E06840F0010394E807009847103417
:1001E000AC42F6D3FFF7DAFF9C080008BC08000811
:1001F00000BFFEE77047F0B50A4600210023002447
:1002000000BF3DE0012505FA01F3156805EA030486
:100210009C4234D105684F000326BE40B5430560BB
:1002200015794E00B5400668354305601579012DF6
:1002300002D01579022D16D185684F000326BE40E5
:10024000B543856055794E00B54086683543856075
:10025000456801268E40B5434560456896798E40D5
:10026000B6B235434560C5684F000326BE40B5436E
:10027000C560D5794E00B540C6683543C560491C98
:100280001029BFD3F0BDF0B5002300244D07ED0EBB
:1002900002FA05F3CE1000F1200555F826504E075E
:1002A000F70E0F26BE40B543CF1000F1200646F8EA
:1002B0002750CE1000F1200555F8265045EA0304DA
:1002C000CE1000F1200545F82640F0BD01837047AF
:1002D00000BFFEE700BFFEE77047704729B1064A3E
:1002E00012680243044B1A6004E0034A1268824316
:1002F000014B1A60704700003038024029B1064AAD
:1003000012680243044B1A6004E0034A12688243F5
:10031000014B1A60704700004438024070470000EB
:100320000CB50020019000903348006840F4803004
:100330003149086000BF3048006800F40030009088
:100340000198401C0190009818B90198B0F5A04F91
:10035000F1D12948006800F4003010B1012000906C
:1003600001E0002000900098012844D1224840304C
:10037000006840F080502049403108601F48006804
:1003800040F440401D4908601B48083000681A4985
:10039000083108600846006808600846006840F4B4
:1003A000805008601648091F0860081F006840F068
:1003B0008070091F086000BF0F48006800F00070DF
:1003C0000028F9D040F202700E4908600A4808304F
:1003D000006820F0030008490831086008460068FA
:1003E00040F00200086000BF03480830006800F0D9
:1003F0000C000828F8D10CBD003802400070004005
:1004000008544107003C02407047000010B51548F1
:10041000006840F47000134908601348006840F019
:1004200001001149086000200F49083108600E489A
:1004300000680E4908400C4908600D48091D086015
:10044000081F006820F48020091F0860002006496A
:100450000C310860FFF764FF4FF0006001498039FC
:10046000086010BD88ED00E000380240FFFFF6FE96
:100470001030002421B1028842F08002028004E0A2
:1004800002884FF67F731A40028070470A884B88B3
:100490001A438B881A43CB881A430B891A434B891A
:1004A0001A438B891A43A0F84420704721B102886F
:1004B00042F00102028004E002884FF6FE731A4007
:1004C0000280704731B1B0F8442042F40042A0F8F5
:1004D000442005E0B0F84420C2F30E02A0F8442006
:1004E0007047000000B58FB001210846FFF706FFF6
:1004F00001210320FFF7F2FE4FF40070019002206B
:100500008DF8080003208DF8090000208DF80A00FE
:1005100001208DF80B0001A93E48FFF76CFE41F267
:100520000100019001A93C48FFF765FE0120019000
:100530008DF8080001A93748FFF75DFE0122092167
:100540003448FFF7A0FE012200213348FFF79BFE4D
:1005500001220C213048FFF796FE4CF24F300D90EF
:100560000020ADF83000ADF83200ADF838008DF85D
:100570003A000CA9294800F0B5F86020ADF81C003D
:100580000120ADF81E000420ADF820000020ADF8D9
:100590002800ADF82A0042F2107009904FF48070E4
:1005A000ADF82C004000ADF82E0007A91B4800F064
:1005B00037F84FF40060ADF80C004010ADF80E00B5
:1005C0000020ADF81000C020ADF812004FF48050AC
:1005D000ADF814004000ADF816004000ADF818006A
:1005E00003A90E48FFF752FF08210C4800F06AF8F3
:1005F00001210A48FFF73EFF0021084800F06FF88C
:1006000001210648FFF752FF01210448FFF75AFF76
:100610000FB000BD00000240000402400000014095
:1006200070B5002400220023058C4FF6EF7635408C
:100630000584028C8388048B48F6FF752C404FF6A6
:10064000FF452C400D884FF6FF7606EA05252C4322
:100650004FF6DF752A408D8906EA05152A434D8835
:1006600006EA05152A43154DA84202D0144DA842AA
:100670001DD14FF67F752A40CD894FF6FF7606EAE9
:1006800005152A434FF6BF752A408D8806EA0515E1
:100690002A434FF6FF352B404FF2FF752B400D8A52
:1006A00006EA85052B434D8A06EA85052B438380A0
:1006B00004838D688563028470BD000000000140E2
:1006C000000401400A460021018B4FF2FF731940DC
:1006D0004FF6FF7303EA0223194301837047416217
:1006E0007047000000220288184B98420ED0184B29
:1006F00098420BD0B0F1804F08D0164B984205D0ED
:10070000154B984202D0154B984204D14FF68F7387
:100710001A404B881A43124B984207D0114B98420B
:1007200004D04FF6FF431A400B891A4302804B68EE
:10073000C3620B880385054B984202D0044B984254
:1007400001D18B7A03860123838270470000014028
:10075000000401400004004000080040000C00407C
:10076000001000400014004000BF0549097801F066
:1007700080010029F9D0C0F30801014A5160704797
:10078000001001401D48006840F001001B4908604E
:100790001A481430006840F01000184914310860FD
:1007A0001748406A40F070001549486208460068E2
:1007B00040F4002008600846406820F400204860AB
:1007C0000846806840F4002088600846C06840F40D
:1007D0008020C8600B48806840F2D921084309494D
:1007E00088600846C06842F20C0108430549C860A9
:1007F0000846C06940F00100C861704730380240C7
:10080000000002400010014000BFFEE7014A02491B
:1008100000F013B85D0800080000002002E008C8DE
:10082000121F08C1002AFAD170477047002001E06A
:1008300001C1121F002AFBD170472DE9F041164675
:100840000F460446002503E03946B047641C6D1C82
:1008500020780028F8D12846BDE8F08110B503467D
:100860000C46D8B2FFF780FF10BD0000FFF78AFFEB
:1008700005A0FFF7CBFFFFF735FE01210648FFF784
:1008800025FD00BFFEE70000544558542053544155
:1008900052540D0A0000000000000240BC0800088D
:1008A00000000020040000001C080008C008000828
:1008B00004000020040400002C08000800000000D0
:040000050800019559
:00000001FF
